{
  "contractName": "Remittance",
  "abi": [
    {
      "constant": true,
      "inputs": [
        {
          "name": "",
          "type": "bytes32"
        }
      ],
      "name": "remittanceStructs",
      "outputs": [
        {
          "name": "sentFrom",
          "type": "address"
        },
        {
          "name": "moneyChanger",
          "type": "address"
        },
        {
          "name": "sendVia",
          "type": "address"
        },
        {
          "name": "amount",
          "type": "uint256"
        },
        {
          "name": "deadline",
          "type": "uint256"
        }
      ],
      "payable": false,
      "stateMutability": "view",
      "type": "function"
    },
    {
      "constant": true,
      "inputs": [],
      "name": "owner",
      "outputs": [
        {
          "name": "",
          "type": "address"
        }
      ],
      "payable": false,
      "stateMutability": "view",
      "type": "function"
    },
    {
      "inputs": [],
      "payable": false,
      "stateMutability": "nonpayable",
      "type": "constructor"
    },
    {
      "anonymous": false,
      "inputs": [
        {
          "indexed": false,
          "name": "sentFrom",
          "type": "address"
        },
        {
          "indexed": false,
          "name": "amount",
          "type": "uint256"
        }
      ],
      "name": "LogAllocation",
      "type": "event"
    },
    {
      "anonymous": false,
      "inputs": [
        {
          "indexed": false,
          "name": "sentFrom",
          "type": "address"
        },
        {
          "indexed": false,
          "name": "moneyChanger",
          "type": "address"
        },
        {
          "indexed": false,
          "name": "amount",
          "type": "uint256"
        }
      ],
      "name": "LogClaim",
      "type": "event"
    },
    {
      "anonymous": false,
      "inputs": [
        {
          "indexed": false,
          "name": "owner",
          "type": "address"
        },
        {
          "indexed": false,
          "name": "newOwner",
          "type": "address"
        }
      ],
      "name": "LogOwnerChanged",
      "type": "event"
    },
    {
      "constant": false,
      "inputs": [
        {
          "name": "moneyChanger",
          "type": "address"
        }
      ],
      "name": "ownerComission",
      "outputs": [
        {
          "name": "success",
          "type": "bool"
        }
      ],
      "payable": true,
      "stateMutability": "payable",
      "type": "function"
    },
    {
      "constant": false,
      "inputs": [
        {
          "name": "password1",
          "type": "bytes32"
        },
        {
          "name": "password2",
          "type": "bytes32"
        }
      ],
      "name": "allocateRemittance",
      "outputs": [
        {
          "name": "hashedPassword",
          "type": "bytes32"
        }
      ],
      "payable": false,
      "stateMutability": "nonpayable",
      "type": "function"
    },
    {
      "constant": false,
      "inputs": [
        {
          "name": "hashedPassword",
          "type": "bytes32"
        },
        {
          "name": "amount",
          "type": "uint256"
        }
      ],
      "name": "redeemRemittance",
      "outputs": [
        {
          "name": "success",
          "type": "bool"
        }
      ],
      "payable": true,
      "stateMutability": "payable",
      "type": "function"
    },
    {
      "constant": false,
      "inputs": [
        {
          "name": "hashedPassword",
          "type": "bytes32"
        }
      ],
      "name": "cancelRemittance",
      "outputs": [
        {
          "name": "success",
          "type": "bool"
        }
      ],
      "payable": false,
      "stateMutability": "nonpayable",
      "type": "function"
    },
    {
      "constant": false,
      "inputs": [
        {
          "name": "newOwner",
          "type": "address"
        }
      ],
      "name": "changeOwner",
      "outputs": [],
      "payable": false,
      "stateMutability": "nonpayable",
      "type": "function"
    },
    {
      "constant": false,
      "inputs": [],
      "name": "killMe",
      "outputs": [
        {
          "name": "",
          "type": "bool"
        }
      ],
      "payable": false,
      "stateMutability": "nonpayable",
      "type": "function"
    }
  ],
  "bytecode": "0x6060604052341561000f57600080fd5b610c7a8061001e6000396000f30060606040526004361061008e576000357c0100000000000000000000000000000000000000000000000000000000900463ffffffff168063110316b71461009357806340aa722e146100d257806364447cf3146101225780637f3b33461461015f5780638da5cb5b1461023a57806397482a811461028f578063a6f9dae1146102d5578063b603cd801461030e575b600080fd5b341561009e57600080fd5b6100b860048080356000191690602001909190505061033b565b604051808215151515815260200191505060405180910390f35b34156100dd57600080fd5b61010460048080356000191690602001909190803560001916906020019091905050610414565b60405180826000191660001916815260200191505060405180910390f35b610145600480803560001916906020019091908035906020019091905050610661565b604051808215151515815260200191505060405180910390f35b341561016a57600080fd5b6101846004808035600019169060200190919050506108c6565b604051808673ffffffffffffffffffffffffffffffffffffffff1673ffffffffffffffffffffffffffffffffffffffff1681526020018573ffffffffffffffffffffffffffffffffffffffff1673ffffffffffffffffffffffffffffffffffffffff1681526020018473ffffffffffffffffffffffffffffffffffffffff1673ffffffffffffffffffffffffffffffffffffffff1681526020018381526020018281526020019550505050505060405180910390f35b341561024557600080fd5b61024d61095c565b604051808273ffffffffffffffffffffffffffffffffffffffff1673ffffffffffffffffffffffffffffffffffffffff16815260200191505060405180910390f35b6102bb600480803573ffffffffffffffffffffffffffffffffffffffff16906020019091905050610981565b604051808215151515815260200191505060405180910390f35b34156102e057600080fd5b61030c600480803573ffffffffffffffffffffffffffffffffffffffff169060200190919050506109ef565b005b341561031957600080fd5b610321610b45565b604051808215151515815260200191505060405180910390f35b60003373ffffffffffffffffffffffffffffffffffffffff1660016000846000191660001916815260200190815260200160002060020160009054906101000a900473ffffffffffffffffffffffffffffffffffffffff1673ffffffffffffffffffffffffffffffffffffffff161415156103b557600080fd5b600060016000846000191660001916815260200190815260200160002060030154101515156103e357600080fd5b426001600084600019166000191681526020019081526020016000206004015410151561040f57600080fd5b600080fd5b600061041e610bdc565b83836040518083600019166000191681526020018260001916600019168152602001925050506040518091039020915060016000836000191660001916815260200190815260200160002060a060405190810160405290816000820160009054906101000a900473ffffffffffffffffffffffffffffffffffffffff1673ffffffffffffffffffffffffffffffffffffffff1673ffffffffffffffffffffffffffffffffffffffff1681526020016001820160009054906101000a900473ffffffffffffffffffffffffffffffffffffffff1673ffffffffffffffffffffffffffffffffffffffff1673ffffffffffffffffffffffffffffffffffffffff1681526020016002820160009054906101000a900473ffffffffffffffffffffffffffffffffffffffff1673ffffffffffffffffffffffffffffffffffffffff1673ffffffffffffffffffffffffffffffffffffffff168152602001600382015481526020016004820154815250509050600081606001511115156105a057600080fd5b806040015173ffffffffffffffffffffffffffffffffffffffff166108fc82606001519081150290604051600060405180830381858888f1935050505015156105e857600080fd5b7f5dff79b963d6bff944d8d81f1c14fbfa66e4ba7f3e6cc039a566744e799c079a338260600151604051808373ffffffffffffffffffffffffffffffffffffffff1673ffffffffffffffffffffffffffffffffffffffff1681526020018281526020019250505060405180910390a18191505092915050565b60008060016000856000191660001916815260200190815260200160002060030154141561068e57600080fd5b81600160008560001916600019168152602001908152602001600020600301541415156106ba57600080fd5b34600160008560001916600019168152602001908152602001600020600301600082825401925050819055503360016000856000191660001916815260200190815260200160002060000160006101000a81548173ffffffffffffffffffffffffffffffffffffffff021916908373ffffffffffffffffffffffffffffffffffffffff16021790555060016000846000191660001916815260200190815260200160002060010160009054906101000a900473ffffffffffffffffffffffffffffffffffffffff1673ffffffffffffffffffffffffffffffffffffffff166108fc349081150290604051600060405180830381858888f1935050505015156107c157600080fd5b7f119e050fd769ef0fc3c5ff3299684b77349131ed4324812c4005abc56867bf463360016000866000191660001916815260200190815260200160002060010160009054906101000a900473ffffffffffffffffffffffffffffffffffffffff1660016000876000191660001916815260200190815260200160002060030154604051808473ffffffffffffffffffffffffffffffffffffffff1673ffffffffffffffffffffffffffffffffffffffff1681526020018373ffffffffffffffffffffffffffffffffffffffff1673ffffffffffffffffffffffffffffffffffffffff168152602001828152602001935050505060405180910390a16001905092915050565b60016020528060005260406000206000915090508060000160009054906101000a900473ffffffffffffffffffffffffffffffffffffffff16908060010160009054906101000a900473ffffffffffffffffffffffffffffffffffffffff16908060020160009054906101000a900473ffffffffffffffffffffffffffffffffffffffff16908060030154908060040154905085565b6000809054906101000a900473ffffffffffffffffffffffffffffffffffffffff1681565b60008060009054906101000a900473ffffffffffffffffffffffffffffffffffffffff1673ffffffffffffffffffffffffffffffffffffffff166108fc6101f49081150290604051600060405180830381858888f1935050505015156109e657600080fd5b60019050919050565b3373ffffffffffffffffffffffffffffffffffffffff166000809054906101000a900473ffffffffffffffffffffffffffffffffffffffff1673ffffffffffffffffffffffffffffffffffffffff16141515610a4a57600080fd5b806000806101000a81548173ffffffffffffffffffffffffffffffffffffffff021916908373ffffffffffffffffffffffffffffffffffffffff1602179055507ffcf23a92150d56e85e3a3d33b357493246e55783095eb6a733eb8439ffc752c86000809054906101000a900473ffffffffffffffffffffffffffffffffffffffff1682604051808373ffffffffffffffffffffffffffffffffffffffff1673ffffffffffffffffffffffffffffffffffffffff1681526020018273ffffffffffffffffffffffffffffffffffffffff1673ffffffffffffffffffffffffffffffffffffffff1681526020019250505060405180910390a150565b60003373ffffffffffffffffffffffffffffffffffffffff166000809054906101000a900473ffffffffffffffffffffffffffffffffffffffff1673ffffffffffffffffffffffffffffffffffffffff16141515610ba257600080fd5b6000809054906101000a900473ffffffffffffffffffffffffffffffffffffffff1673ffffffffffffffffffffffffffffffffffffffff16ff5b60a060405190810160405280600073ffffffffffffffffffffffffffffffffffffffff168152602001600073ffffffffffffffffffffffffffffffffffffffff168152602001600073ffffffffffffffffffffffffffffffffffffffff168152602001600081526020016000815250905600a165627a7a72305820ed467d27f5f01757d8329ac2ff18506c5e5b6b38d228295941b3d5cdf44a3b9a0029",
  "source": "pragma solidity ^0.4.19;\n\ncontract Remittance {\n\n    address public owner;\n    \n    struct RemittanceBox {\n       address sentFrom;\n       address moneyChanger; \n       address sendVia;\n       uint amount;\n       uint deadline; \n    }\n    // for every bytes32 there is a RemittanceBox and those namespaces (struct) will conform a mapping named remittanceStructs\n    mapping (bytes32 => RemittanceBox) public remittanceStructs; \n\n    event LogAllocation(address sentFrom, uint amount);\n    event LogClaim(address sentFrom, address moneyChanger, uint amount);\n    event LogOwnerChanged(address owner, address newOwner);  \n    \n    function Remittance() public {\n    }\n    \n    function ownerComission (address moneyChanger) public payable returns(bool success) {\n        owner.transfer(500);\n        return true;\n    }\n\n    function allocateRemittance(bytes32 password1, bytes32 password2) public returns(bytes32 hashedPassword) {\n        hashedPassword = keccak256(password1, password2);\n        RemittanceBox memory r = remittanceStructs[hashedPassword]; // this is the code the user implicitly sent\n        require(r.amount > 0); // if this box is empty, disallow\n        r.sendVia.transfer(r.amount);\n        LogAllocation(msg.sender, r.amount);\n        return hashedPassword;\n    }\n    \n    function redeemRemittance(bytes32 hashedPassword, uint amount) public payable returns(bool success) {\n        if (remittanceStructs[hashedPassword].amount == 0) revert();\n        if (remittanceStructs[hashedPassword].amount != amount) revert();\n        remittanceStructs[hashedPassword].amount += msg.value;\n        remittanceStructs[hashedPassword].sentFrom = msg.sender;\n        remittanceStructs[hashedPassword].moneyChanger.transfer(msg.value);\n        LogClaim(msg.sender, remittanceStructs[hashedPassword].moneyChanger, remittanceStructs[hashedPassword].amount);\n        return true;\n    }\n    \n    function cancelRemittance(bytes32 hashedPassword) public returns(bool success) {\n        require(remittanceStructs[hashedPassword].sendVia == msg.sender);\n        require(remittanceStructs[hashedPassword].amount >= 0);\n        require(remittanceStructs[hashedPassword].deadline < now); \n        revert();\n        return true;\n    }\n    \n    function changeOwner(address newOwner) public {\n        require (owner == msg.sender);\n        owner = newOwner;\n        LogOwnerChanged(owner, newOwner);\n    }\n\n    function killMe() public returns (bool) {\n        require (owner == msg.sender);\n        selfdestruct(owner);\n        return true;\n    }\n}",
  "sourcePath": "/home/lluisa/DAPPS/B9Lab-Project2/contracts/Remittance.sol",
  "compiler": {
    "name": "solc",
    "version": "0.4.19+commit.c4cbbb05.Emscripten.clang"
  },
  "schemaVersion": "2.0.0",
  "updatedAt": "2018-11-28T21:01:49.823Z"
}