{
  "contractName": "Remittance",
  "abi": [
    {
      "constant": true,
      "inputs": [
        {
          "name": "",
          "type": "address"
        }
      ],
      "name": "pendingWithdrawals",
      "outputs": [
        {
          "name": "",
          "type": "uint256"
        }
      ],
      "payable": false,
      "stateMutability": "view",
      "type": "function"
    },
    {
      "anonymous": false,
      "inputs": [
        {
          "indexed": false,
          "name": "recipient1",
          "type": "address"
        },
        {
          "indexed": false,
          "name": "passHash1",
          "type": "bytes32"
        },
        {
          "indexed": false,
          "name": "passHash2",
          "type": "bytes32"
        }
      ],
      "name": "LogToken",
      "type": "event"
    },
    {
      "anonymous": false,
      "inputs": [
        {
          "indexed": false,
          "name": "owner",
          "type": "address"
        },
        {
          "indexed": false,
          "name": "amount",
          "type": "uint256"
        }
      ],
      "name": "LogWithdrawal",
      "type": "event"
    },
    {
      "anonymous": false,
      "inputs": [
        {
          "indexed": false,
          "name": "date",
          "type": "uint256"
        }
      ],
      "name": "LogWithdrawalDate",
      "type": "event"
    },
    {
      "anonymous": false,
      "inputs": [
        {
          "indexed": false,
          "name": "sender",
          "type": "address"
        },
        {
          "indexed": false,
          "name": "recipient1",
          "type": "address"
        },
        {
          "indexed": false,
          "name": "value",
          "type": "uint256"
        }
      ],
      "name": "LogTransferEther",
      "type": "event"
    },
    {
      "anonymous": false,
      "inputs": [
        {
          "indexed": false,
          "name": "recipient2",
          "type": "address"
        },
        {
          "indexed": false,
          "name": "amount",
          "type": "uint256"
        }
      ],
      "name": "LogReceipt",
      "type": "event"
    },
    {
      "anonymous": false,
      "inputs": [
        {
          "indexed": false,
          "name": "owner",
          "type": "address"
        },
        {
          "indexed": false,
          "name": "newOwner",
          "type": "address"
        }
      ],
      "name": "LogOwnerChanged",
      "type": "event"
    },
    {
      "constant": false,
      "inputs": [],
      "name": "remittance",
      "outputs": [],
      "payable": false,
      "stateMutability": "nonpayable",
      "type": "function"
    },
    {
      "constant": false,
      "inputs": [
        {
          "name": "passHash1",
          "type": "bytes32"
        },
        {
          "name": "passHash2",
          "type": "bytes32"
        },
        {
          "name": "recipient1",
          "type": "address"
        },
        {
          "name": "recipient2",
          "type": "address"
        }
      ],
      "name": "token",
      "outputs": [
        {
          "name": "",
          "type": "bool"
        }
      ],
      "payable": false,
      "stateMutability": "nonpayable",
      "type": "function"
    },
    {
      "constant": false,
      "inputs": [
        {
          "name": "withdrawalDate",
          "type": "uint256"
        },
        {
          "name": "date",
          "type": "uint256"
        },
        {
          "name": "token",
          "type": "bool"
        }
      ],
      "name": "withdraw",
      "outputs": [],
      "payable": false,
      "stateMutability": "nonpayable",
      "type": "function"
    },
    {
      "constant": false,
      "inputs": [
        {
          "name": "recipient1",
          "type": "address"
        }
      ],
      "name": "transferEther",
      "outputs": [],
      "payable": true,
      "stateMutability": "payable",
      "type": "function"
    },
    {
      "constant": false,
      "inputs": [
        {
          "name": "recipient2",
          "type": "address"
        },
        {
          "name": "amount",
          "type": "uint256"
        }
      ],
      "name": "receipt",
      "outputs": [
        {
          "name": "",
          "type": "bool"
        }
      ],
      "payable": false,
      "stateMutability": "nonpayable",
      "type": "function"
    },
    {
      "constant": false,
      "inputs": [
        {
          "name": "owner",
          "type": "address"
        },
        {
          "name": "newOwner",
          "type": "address"
        }
      ],
      "name": "changeOwner",
      "outputs": [],
      "payable": false,
      "stateMutability": "nonpayable",
      "type": "function"
    },
    {
      "constant": false,
      "inputs": [
        {
          "name": "owner",
          "type": "address"
        }
      ],
      "name": "killMe",
      "outputs": [
        {
          "name": "",
          "type": "bool"
        }
      ],
      "payable": false,
      "stateMutability": "nonpayable",
      "type": "function"
    }
  ],
  "bytecode": "0x6060604052341561000f57600080fd5b6109a88061001e6000396000f30060606040526004361061008e576000357c0100000000000000000000000000000000000000000000000000000000900463ffffffff16806307fbc85f146100935780631b0a613c146100ed57806333cfcd3b146101775780636b55e991146101ae5780638142e8f6146101dc578063ee1083871461022d578063f00d4b5d14610242578063f3f437031461029a575b600080fd5b341561009e57600080fd5b6100d3600480803573ffffffffffffffffffffffffffffffffffffffff169060200190919080359060200190919050506102e7565b604051808215151515815260200191505060405180910390f35b34156100f857600080fd5b61015d6004808035600019169060200190919080356000191690602001909190803573ffffffffffffffffffffffffffffffffffffffff1690602001909190803573ffffffffffffffffffffffffffffffffffffffff1690602001909190505061035e565b604051808215151515815260200191505060405180910390f35b341561018257600080fd5b6101ac6004808035906020019091908035906020019091908035151590602001909190505061058f565b005b6101da600480803573ffffffffffffffffffffffffffffffffffffffff1690602001909190505061072c565b005b34156101e757600080fd5b610213600480803573ffffffffffffffffffffffffffffffffffffffff16906020019091905050610829565b604051808215151515815260200191505060405180910390f35b341561023857600080fd5b61024061087e565b005b341561024d57600080fd5b610298600480803573ffffffffffffffffffffffffffffffffffffffff1690602001909190803573ffffffffffffffffffffffffffffffffffffffff1690602001909190505061088c565b005b34156102a557600080fd5b6102d1600480803573ffffffffffffffffffffffffffffffffffffffff16906020019091905050610964565b6040518082815260200191505060405180910390f35b60007f570de027bfa99046095d942a9bece2dddeba043eb155f2149192ea29adc0cfa68334604051808373ffffffffffffffffffffffffffffffffffffffff1673ffffffffffffffffffffffffffffffffffffffff1681526020018281526020019250505060405180910390a16001905092915050565b600082604051808273ffffffffffffffffffffffffffffffffffffffff1673ffffffffffffffffffffffffffffffffffffffff166c010000000000000000000000000281526014019150506040518091039020945081604051808273ffffffffffffffffffffffffffffffffffffffff1673ffffffffffffffffffffffffffffffffffffffff166c010000000000000000000000000281526014019150506040518091039020935060006001026000191685600019161415151561042157600080fd5b60006001026000191684600019161415151561043c57600080fd5b836000191685600019161415151561045057fe5b600073ffffffffffffffffffffffffffffffffffffffff168373ffffffffffffffffffffffffffffffffffffffff161415151561048c57600080fd5b600073ffffffffffffffffffffffffffffffffffffffff168273ffffffffffffffffffffffffffffffffffffffff16141515156104c857600080fd5b8173ffffffffffffffffffffffffffffffffffffffff168373ffffffffffffffffffffffffffffffffffffffff161415151561050057fe5b7f03e4dddad4c664ef73b385995472494776e45886516a30c8e60d25dca391b442838686604051808473ffffffffffffffffffffffffffffffffffffffff1673ffffffffffffffffffffffffffffffffffffffff16815260200183600019166000191681526020018260001916600019168152602001935050505060405180910390a160019050949350505050565b60006001151582151514156106df576000803373ffffffffffffffffffffffffffffffffffffffff1673ffffffffffffffffffffffffffffffffffffffff168152602001908152602001600020549050600081101515156105ef57600080fd5b60008060003373ffffffffffffffffffffffffffffffffffffffff1673ffffffffffffffffffffffffffffffffffffffff168152602001908152602001600020819055507fb4214c8c54fc7442f36d3682f59aebaf09358a4431835b30efb29d52cf9e1e913382604051808373ffffffffffffffffffffffffffffffffffffffff1673ffffffffffffffffffffffffffffffffffffffff1681526020018281526020019250505060405180910390a13373ffffffffffffffffffffffffffffffffffffffff166108fc829081150290604051600060405180830381858888f1935050505015156106de57600080fd5b5b83601e111515156106ef57600080fd5b7f0ac0ac6cdfbbd699655a7d5b42d7cb0dcb1cf3ac2c7ca875b3765d25b9b86515836040518082815260200191505060405180910390a150505050565b60003411151561073b57600080fd5b346000808373ffffffffffffffffffffffffffffffffffffffff1673ffffffffffffffffffffffffffffffffffffffff168152602001908152602001600020600082825401925050819055507faf4915194ecf4d021d1ae539c41b1ef9dddaf0e720846d03dd793227ee65fa12338234604051808473ffffffffffffffffffffffffffffffffffffffff1673ffffffffffffffffffffffffffffffffffffffff1681526020018373ffffffffffffffffffffffffffffffffffffffff1673ffffffffffffffffffffffffffffffffffffffff168152602001828152602001935050505060405180910390a150565b60008173ffffffffffffffffffffffffffffffffffffffff163373ffffffffffffffffffffffffffffffffffffffff1614151561086557600080fd5b8173ffffffffffffffffffffffffffffffffffffffff16ff5b600080339150601e90505050565b8173ffffffffffffffffffffffffffffffffffffffff163373ffffffffffffffffffffffffffffffffffffffff161415156108c657600080fd5b8091507ffcf23a92150d56e85e3a3d33b357493246e55783095eb6a733eb8439ffc752c88282604051808373ffffffffffffffffffffffffffffffffffffffff1673ffffffffffffffffffffffffffffffffffffffff1681526020018273ffffffffffffffffffffffffffffffffffffffff1673ffffffffffffffffffffffffffffffffffffffff1681526020019250505060405180910390a15050565b600060205280600052604060002060009150905054815600a165627a7a723058205e0cd3532aad466651b8ed2f3732a42c20252d7b5fe9254eb164b66d2c96d6cf0029",
  "source": "pragma solidity ^0.4.19;\n\ncontract Remittance {\n \n    struct Exchange{\n       address owner;\n       uint amount;\n       uint deadline; \n       bytes32 passHash; //The usual hash function in Solidity is keccak256(abi.encodePacked(param1, param2, ...)).\n    }\n    \n    mapping (address => uint) public pendingWithdrawals; \n\n    event LogToken(address recipient1, bytes32 passHash1, bytes32 passHash2);\n    event LogWithdrawal(address owner, uint amount);\n    event LogWithdrawalDate(uint constant date); \n    event LogTransferEther(address sender, address recipient1, uint value); \n    event LogReceipt(address recipient2, uint amount); \n    event LogOwnerChanged(address owner, address newOwner);  \n    \n    function remittance() public {\n        address owner = msg.sender;\n        uint deadline = 30;\n    }\n\n    function token(bytes32 passHash1, bytes32 passHash2, address recipient1, address recipient2) public returns (bool) {\n        passHash1 = keccak256(recipient1);\n        passHash2 = keccak256(recipient2); \n        require (passHash1 != bytes32(0));\n        require (passHash2 != bytes32(0));\n        assert (passHash1 != passHash2);\n        require (recipient1 != address(0x0)); \n        require (recipient2 != address(0x0));\n        assert (recipient1 != recipient2); \n        LogToken(recipient1, passHash1, passHash2);\n        return true;\n    }\n    \n    function withdraw(uint withdrawalDate, uint date, bool token) public { \n        if (token == true) {        \n        uint amount = pendingWithdrawals[msg.sender];\n        require (amount >= 0);\n        pendingWithdrawals[msg.sender] = 0; \n        LogWithdrawal(msg.sender, amount);\n        msg.sender.transfer(amount);\n        }\n        require(30 <= withdrawalDate); \n        LogWithdrawalDate(date); \n    }\n\n    function transferEther(address  recipient1) public payable {\n        require (msg.value > 0);\n        pendingWithdrawals[recipient1] += msg.value;\n        LogTransferEther(msg.sender, recipient1, msg.value);\n    } \n    \n    function receipt(address recipient2, uint amount) public returns (bool) {\n        msg.value == amount;\n        LogReceipt(recipient2, msg.value);\n        return true;\n    }\n\n    function changeOwner(address owner, address newOwner) public {\n        require (msg.sender == owner);\n        owner = newOwner;\n        LogOwnerChanged(owner, newOwner);\n    }\n\n    function killMe(address owner) public returns (bool) {\n        require (msg.sender == owner);\n        selfdestruct(owner);\n        return true;\n    }\n}\n",
  "sourcePath": "/home/lluisa/Documents/B9Lab-Project2/contracts/Remittance.sol",
  "compiler": {
    "name": "solc",
    "version": "0.4.19+commit.c4cbbb05.Emscripten.clang"
  },
  "schemaVersion": "2.0.0",
  "updatedAt": "2018-11-18T20:04:36.267Z"
}